{
  "_format": "hh-sol-artifact-1",
  "contractName": "MyVote",
  "sourceName": "contracts/MyVote.sol",
  "abi": [
    {
      "inputs": [
        {
          "internalType": "string[]",
          "name": "proposalNames",
          "type": "string[]"
        }
      ],
      "stateMutability": "nonpayable",
      "type": "constructor"
    },
    {
      "inputs": [],
      "name": "chairman",
      "outputs": [
        {
          "internalType": "address",
          "name": "",
          "type": "address"
        }
      ],
      "stateMutability": "view",
      "type": "function"
    },
    {
      "inputs": [
        {
          "internalType": "address",
          "name": "to",
          "type": "address"
        }
      ],
      "name": "delegate",
      "outputs": [],
      "stateMutability": "nonpayable",
      "type": "function"
    },
    {
      "inputs": [
        {
          "internalType": "uint256",
          "name": "proposal",
          "type": "uint256"
        }
      ],
      "name": "doVote",
      "outputs": [],
      "stateMutability": "nonpayable",
      "type": "function"
    },
    {
      "inputs": [],
      "name": "getProposalsLength",
      "outputs": [
        {
          "internalType": "uint256",
          "name": "",
          "type": "uint256"
        }
      ],
      "stateMutability": "view",
      "type": "function"
    },
    {
      "inputs": [
        {
          "internalType": "address",
          "name": "voter",
          "type": "address"
        }
      ],
      "name": "giveRightToVote",
      "outputs": [],
      "stateMutability": "nonpayable",
      "type": "function"
    },
    {
      "inputs": [
        {
          "internalType": "uint256",
          "name": "",
          "type": "uint256"
        }
      ],
      "name": "proposals",
      "outputs": [
        {
          "internalType": "string",
          "name": "name",
          "type": "string"
        },
        {
          "internalType": "uint256",
          "name": "voteCount",
          "type": "uint256"
        }
      ],
      "stateMutability": "view",
      "type": "function"
    },
    {
      "inputs": [
        {
          "internalType": "address",
          "name": "",
          "type": "address"
        }
      ],
      "name": "voters",
      "outputs": [
        {
          "internalType": "uint256",
          "name": "weight",
          "type": "uint256"
        },
        {
          "internalType": "bool",
          "name": "voted",
          "type": "bool"
        },
        {
          "internalType": "address",
          "name": "delegateTo",
          "type": "address"
        },
        {
          "internalType": "uint256",
          "name": "voteTo",
          "type": "uint256"
        }
      ],
      "stateMutability": "view",
      "type": "function"
    },
    {
      "inputs": [],
      "name": "winnerName",
      "outputs": [
        {
          "internalType": "string",
          "name": "",
          "type": "string"
        }
      ],
      "stateMutability": "view",
      "type": "function"
    },
    {
      "inputs": [],
      "name": "winningProposal",
      "outputs": [
        {
          "internalType": "uint256",
          "name": "winningProposal_",
          "type": "uint256"
        }
      ],
      "stateMutability": "view",
      "type": "function"
    }
  ],
  "bytecode": "0x608060405234801561001057600080fd5b50604051611b07380380611b07833981810160405281019061003291906103d2565b336000806101000a81548173ffffffffffffffffffffffffffffffffffffffff021916908373ffffffffffffffffffffffffffffffffffffffff16021790555060018060008060009054906101000a900473ffffffffffffffffffffffffffffffffffffffff1673ffffffffffffffffffffffffffffffffffffffff1673ffffffffffffffffffffffffffffffffffffffff1681526020019081526020016000206000018190555060005b815181101561017057600260405180604001604052808484815181106101065761010561041b565b5b60200260200101518152602001600081525090806001815401808255809150506001900390600052602060002090600202016000909190919091506000820151816000019081610156919061066b565b5060208201518160010155505080806001019150506100dd565b505061073d565b6000604051905090565b600080fd5b600080fd5b600080fd5b6000601f19601f8301169050919050565b7f4e487b7100000000000000000000000000000000000000000000000000000000600052604160045260246000fd5b6101d982610190565b810181811067ffffffffffffffff821117156101f8576101f76101a1565b5b80604052505050565b600061020b610177565b905061021782826101d0565b919050565b600067ffffffffffffffff821115610237576102366101a1565b5b602082029050602081019050919050565b600080fd5b600080fd5b600067ffffffffffffffff82111561026d5761026c6101a1565b5b61027682610190565b9050602081019050919050565b60005b838110156102a1578082015181840152602081019050610286565b60008484015250505050565b60006102c06102bb84610252565b610201565b9050828152602081018484840111156102dc576102db61024d565b5b6102e7848285610283565b509392505050565b600082601f8301126103045761030361018b565b5b81516103148482602086016102ad565b91505092915050565b600061033061032b8461021c565b610201565b9050808382526020820190506020840283018581111561035357610352610248565b5b835b8181101561039a57805167ffffffffffffffff8111156103785761037761018b565b5b80860161038589826102ef565b85526020850194505050602081019050610355565b5050509392505050565b600082601f8301126103b9576103b861018b565b5b81516103c984826020860161031d565b91505092915050565b6000602082840312156103e8576103e7610181565b5b600082015167ffffffffffffffff81111561040657610405610186565b5b610412848285016103a4565b91505092915050565b7f4e487b7100000000000000000000000000000000000000000000000000000000600052603260045260246000fd5b600081519050919050565b7f4e487b7100000000000000000000000000000000000000000000000000000000600052602260045260246000fd5b6000600282049050600182168061049c57607f821691505b6020821081036104af576104ae610455565b5b50919050565b60008190508160005260206000209050919050565b60006020601f8301049050919050565b600082821b905092915050565b6000600883026105177fffffffffffffffffffffffffffffffffffffffffffffffffffffffffffffffff826104da565b61052186836104da565b95508019841693508086168417925050509392505050565b6000819050919050565b6000819050919050565b600061056861056361055e84610539565b610543565b610539565b9050919050565b6000819050919050565b6105828361054d565b61059661058e8261056f565b8484546104e7565b825550505050565b600090565b6105ab61059e565b6105b6818484610579565b505050565b5b818110156105da576105cf6000826105a3565b6001810190506105bc565b5050565b601f82111561061f576105f0816104b5565b6105f9846104ca565b81016020851015610608578190505b61061c610614856104ca565b8301826105bb565b50505b505050565b600082821c905092915050565b600061064260001984600802610624565b1980831691505092915050565b600061065b8383610631565b9150826002028217905092915050565b6106748261044a565b67ffffffffffffffff81111561068d5761068c6101a1565b5b6106978254610484565b6106a28282856105de565b600060209050601f8311600181146106d557600084156106c3578287015190505b6106cd858261064f565b865550610735565b601f1984166106e3866104b5565b60005b8281101561070b578489015182556001820191506020850194506020810190506106e6565b868310156107285784890151610724601f891682610631565b8355505b6001600288020188555050505b505050505050565b6113bb8061074c6000396000f3fe608060405234801561001057600080fd5b50600436106100935760003560e01c806387f7b9751161006657806387f7b9751461011f5780639e7b8d611461013d578063a3ec138d14610159578063bc378a731461018c578063e2ba53f0146101aa57610093565b8063013cf08b14610098578063124258c6146100c95780635c19a95c146100e5578063609ff1bd14610101575b600080fd5b6100b260048036038101906100ad9190610be7565b6101c8565b6040516100c0929190610cb3565b60405180910390f35b6100e360048036038101906100de9190610be7565b610284565b005b6100ff60048036038101906100fa9190610d41565b6103ca565b005b6101096107f3565b6040516101169190610d6e565b60405180910390f35b610127610875565b6040516101349190610d98565b60405180910390f35b61015760048036038101906101529190610d41565b610899565b005b610173600480360381019061016e9190610d41565b610a86565b6040516101839493929190610dce565b60405180910390f35b610194610ae3565b6040516101a19190610d6e565b60405180910390f35b6101b2610af0565b6040516101bf9190610e13565b60405180910390f35b600281815481106101d857600080fd5b90600052602060002090600202016000915090508060000180546101fb90610e64565b80601f016020809104026020016040519081016040528092919081815260200182805461022790610e64565b80156102745780601f1061024957610100808354040283529160200191610274565b820191906000526020600020905b81548152906001019060200180831161025757829003601f168201915b5050505050908060010154905082565b6000600160003373ffffffffffffffffffffffffffffffffffffffff1673ffffffffffffffffffffffffffffffffffffffff1681526020019081526020016000209050600081600001540361030e576040517f08c379a000000000000000000000000000000000000000000000000000000000815260040161030590610ee1565b60405180910390fd5b8060010160009054906101000a900460ff1615610360576040517f08c379a000000000000000000000000000000000000000000000000000000000815260040161035790610f4d565b60405180910390fd5b60018160010160006101000a81548160ff02191690831515021790555081816002018190555080600001546002838154811061039f5761039e610f6d565b5b906000526020600020906002020160010160008282546103bf9190610fcb565b925050819055505050565b6000600160003373ffffffffffffffffffffffffffffffffffffffff1673ffffffffffffffffffffffffffffffffffffffff16815260200190815260200160002090506000816000015403610454576040517f08c379a000000000000000000000000000000000000000000000000000000000815260040161044b9061104b565b60405180910390fd5b8060010160009054906101000a900460ff16156104a6576040517f08c379a000000000000000000000000000000000000000000000000000000000815260040161049d906110b7565b60405180910390fd5b3373ffffffffffffffffffffffffffffffffffffffff168273ffffffffffffffffffffffffffffffffffffffff1603610514576040517f08c379a000000000000000000000000000000000000000000000000000000000815260040161050b90611123565b60405180910390fd5b5b600073ffffffffffffffffffffffffffffffffffffffff16600160008473ffffffffffffffffffffffffffffffffffffffff1673ffffffffffffffffffffffffffffffffffffffff16815260200190815260200160002060010160019054906101000a900473ffffffffffffffffffffffffffffffffffffffff1673ffffffffffffffffffffffffffffffffffffffff161461068357600160008373ffffffffffffffffffffffffffffffffffffffff1673ffffffffffffffffffffffffffffffffffffffff16815260200190815260200160002060010160019054906101000a900473ffffffffffffffffffffffffffffffffffffffff1691503373ffffffffffffffffffffffffffffffffffffffff168273ffffffffffffffffffffffffffffffffffffffff160361067e576040517f08c379a00000000000000000000000000000000000000000000000000000000081526004016106759061118f565b60405180910390fd5b610515565b6000600160008473ffffffffffffffffffffffffffffffffffffffff1673ffffffffffffffffffffffffffffffffffffffff168152602001908152602001600020905060018160000154101561070e576040517f08c379a000000000000000000000000000000000000000000000000000000000815260040161070590611221565b60405180910390fd5b60018260010160006101000a81548160ff021916908315150217905550828260010160016101000a81548173ffffffffffffffffffffffffffffffffffffffff021916908373ffffffffffffffffffffffffffffffffffffffff1602179055508060010160009054906101000a900460ff16156107ce57816000015460028260020154815481106107a2576107a1610f6d565b5b906000526020600020906002020160010160008282546107c29190610fcb565b925050819055506107ee565b81600001548160000160008282546107e69190610fcb565b925050819055505b505050565b6000806000905060005b60028054905081101561087057816002828154811061081f5761081e610f6d565b5b9060005260206000209060020201600101541115610863576002818154811061084b5761084a610f6d565b5b90600052602060002090600202016001015491508092505b80806001019150506107fd565b505090565b60008054906101000a900473ffffffffffffffffffffffffffffffffffffffff1681565b60008054906101000a900473ffffffffffffffffffffffffffffffffffffffff1673ffffffffffffffffffffffffffffffffffffffff163373ffffffffffffffffffffffffffffffffffffffff1614610927576040517f08c379a000000000000000000000000000000000000000000000000000000000815260040161091e9061128d565b60405180910390fd5b600160008273ffffffffffffffffffffffffffffffffffffffff1673ffffffffffffffffffffffffffffffffffffffff16815260200190815260200160002060010160009054906101000a900460ff16156109b7576040517f08c379a00000000000000000000000000000000000000000000000000000000081526004016109ae906112f9565b60405180910390fd5b6000600160008373ffffffffffffffffffffffffffffffffffffffff1673ffffffffffffffffffffffffffffffffffffffff1681526020019081526020016000206000015414610a3c576040517f08c379a0000000000000000000000000000000000000000000000000000000008152600401610a3390611365565b60405180910390fd5b60018060008373ffffffffffffffffffffffffffffffffffffffff1673ffffffffffffffffffffffffffffffffffffffff1681526020019081526020016000206000018190555050565b60016020528060005260406000206000915090508060000154908060010160009054906101000a900460ff16908060010160019054906101000a900473ffffffffffffffffffffffffffffffffffffffff16908060020154905084565b6000600280549050905090565b60606002610afc6107f3565b81548110610b0d57610b0c610f6d565b5b90600052602060002090600202016000018054610b2990610e64565b80601f0160208091040260200160405190810160405280929190818152602001828054610b5590610e64565b8015610ba25780601f10610b7757610100808354040283529160200191610ba2565b820191906000526020600020905b815481529060010190602001808311610b8557829003601f168201915b5050505050905090565b600080fd5b6000819050919050565b610bc481610bb1565b8114610bcf57600080fd5b50565b600081359050610be181610bbb565b92915050565b600060208284031215610bfd57610bfc610bac565b5b6000610c0b84828501610bd2565b91505092915050565b600081519050919050565b600082825260208201905092915050565b60005b83811015610c4e578082015181840152602081019050610c33565b60008484015250505050565b6000601f19601f8301169050919050565b6000610c7682610c14565b610c808185610c1f565b9350610c90818560208601610c30565b610c9981610c5a565b840191505092915050565b610cad81610bb1565b82525050565b60006040820190508181036000830152610ccd8185610c6b565b9050610cdc6020830184610ca4565b9392505050565b600073ffffffffffffffffffffffffffffffffffffffff82169050919050565b6000610d0e82610ce3565b9050919050565b610d1e81610d03565b8114610d2957600080fd5b50565b600081359050610d3b81610d15565b92915050565b600060208284031215610d5757610d56610bac565b5b6000610d6584828501610d2c565b91505092915050565b6000602082019050610d836000830184610ca4565b92915050565b610d9281610d03565b82525050565b6000602082019050610dad6000830184610d89565b92915050565b60008115159050919050565b610dc881610db3565b82525050565b6000608082019050610de36000830187610ca4565b610df06020830186610dbf565b610dfd6040830185610d89565b610e0a6060830184610ca4565b95945050505050565b60006020820190508181036000830152610e2d8184610c6b565b905092915050565b7f4e487b7100000000000000000000000000000000000000000000000000000000600052602260045260246000fd5b60006002820490506001821680610e7c57607f821691505b602082108103610e8f57610e8e610e35565b5b50919050565b7f5b646f566f74655d20796f752068617665206e6f207765696768740000000000600082015250565b6000610ecb601b83610c1f565b9150610ed682610e95565b602082019050919050565b60006020820190508181036000830152610efa81610ebe565b9050919050565b7f5b646f566f74655d20796f7520766f7465640000000000000000000000000000600082015250565b6000610f37601283610c1f565b9150610f4282610f01565b602082019050919050565b60006020820190508181036000830152610f6681610f2a565b9050919050565b7f4e487b7100000000000000000000000000000000000000000000000000000000600052603260045260246000fd5b7f4e487b7100000000000000000000000000000000000000000000000000000000600052601160045260246000fd5b6000610fd682610bb1565b9150610fe183610bb1565b9250828201905080821115610ff957610ff8610f9c565b5b92915050565b7f5b64656c65676174655d20796f752068617665206e6f20776569676874000000600082015250565b6000611035601d83610c1f565b915061104082610fff565b602082019050919050565b6000602082019050818103600083015261106481611028565b9050919050565b7f5b64656c65676174655d20796f7520616c726561647920766f74656400000000600082015250565b60006110a1601c83610c1f565b91506110ac8261106b565b602082019050919050565b600060208201905081810360008301526110d081611094565b9050919050565b7f5b64656c65676174655d2034303320746f206769766520746f2073656c660000600082015250565b600061110d601e83610c1f565b9150611118826110d7565b602082019050919050565b6000602082019050818103600083015261113c81611100565b9050919050565b7f5b64656c65676174655d206c6f6f702064656c65676174650000000000000000600082015250565b6000611179601883610c1f565b915061118482611143565b602082019050919050565b600060208201905081810360008301526111a88161116c565b9050919050565b7f5b64656c65676174655d2061667465722064656c65676174652c20726563656960008201527f7665722068617665206e6f207765696768740000000000000000000000000000602082015250565b600061120b603283610c1f565b9150611216826111af565b604082019050919050565b6000602082019050818103600083015261123a816111fe565b9050919050565b7f5b676976655269676874546f566f74655d206e6f742063686169726d616e0000600082015250565b6000611277601e83610c1f565b915061128282611241565b602082019050919050565b600060208201905081810360008301526112a68161126a565b9050919050565b7f5b676976655269676874546f566f74655d2068617320766f7465640000000000600082015250565b60006112e3601b83610c1f565b91506112ee826112ad565b602082019050919050565b60006020820190508181036000830152611312816112d6565b9050919050565b7f5b676976655269676874546f566f74655d206861732077656967687473000000600082015250565b600061134f601d83610c1f565b915061135a82611319565b602082019050919050565b6000602082019050818103600083015261137e81611342565b905091905056fea26469706673582212205e59a328b72621caeb85a3de36ed5cfc5634192d80810c4832d235d9979b85ef64736f6c634300081c0033",
  "linkReferences": {},
  "deployedLinkReferences": {}
}