{
  "_format": "hh-sol-artifact-1",
  "contractName": "MyVote",
  "sourceName": "contracts/MyVote.sol",
  "abi": [
    {
      "inputs": [
        {
          "internalType": "string[]",
          "name": "proposalNames",
          "type": "string[]"
        }
      ],
      "stateMutability": "nonpayable",
      "type": "constructor"
    },
    {
      "inputs": [],
      "name": "chairman",
      "outputs": [
        {
          "internalType": "address",
          "name": "",
          "type": "address"
        }
      ],
      "stateMutability": "view",
      "type": "function"
    },
    {
      "inputs": [
        {
          "internalType": "address",
          "name": "to",
          "type": "address"
        }
      ],
      "name": "delegate",
      "outputs": [],
      "stateMutability": "nonpayable",
      "type": "function"
    },
    {
      "inputs": [
        {
          "internalType": "uint256",
          "name": "proposal",
          "type": "uint256"
        }
      ],
      "name": "doVote",
      "outputs": [],
      "stateMutability": "nonpayable",
      "type": "function"
    },
    {
      "inputs": [
        {
          "internalType": "address",
          "name": "voter",
          "type": "address"
        }
      ],
      "name": "giveRightToVote",
      "outputs": [],
      "stateMutability": "nonpayable",
      "type": "function"
    },
    {
      "inputs": [
        {
          "internalType": "uint256",
          "name": "",
          "type": "uint256"
        }
      ],
      "name": "proposals",
      "outputs": [
        {
          "internalType": "string",
          "name": "name",
          "type": "string"
        },
        {
          "internalType": "uint256",
          "name": "voteCount",
          "type": "uint256"
        }
      ],
      "stateMutability": "view",
      "type": "function"
    },
    {
      "inputs": [
        {
          "internalType": "address",
          "name": "",
          "type": "address"
        }
      ],
      "name": "voters",
      "outputs": [
        {
          "internalType": "uint256",
          "name": "weight",
          "type": "uint256"
        },
        {
          "internalType": "bool",
          "name": "voted",
          "type": "bool"
        },
        {
          "internalType": "address",
          "name": "delegateTo",
          "type": "address"
        },
        {
          "internalType": "uint256",
          "name": "voteTo",
          "type": "uint256"
        }
      ],
      "stateMutability": "view",
      "type": "function"
    },
    {
      "inputs": [],
      "name": "winnerName",
      "outputs": [
        {
          "internalType": "string",
          "name": "",
          "type": "string"
        }
      ],
      "stateMutability": "view",
      "type": "function"
    },
    {
      "inputs": [],
      "name": "winningProposal",
      "outputs": [
        {
          "internalType": "uint256",
          "name": "winningProposal_",
          "type": "uint256"
        }
      ],
      "stateMutability": "view",
      "type": "function"
    }
  ],
  "bytecode": "0x608060405234801561001057600080fd5b50604051611ad1380380611ad1833981810160405281019061003291906103d2565b336000806101000a81548173ffffffffffffffffffffffffffffffffffffffff021916908373ffffffffffffffffffffffffffffffffffffffff16021790555060018060008060009054906101000a900473ffffffffffffffffffffffffffffffffffffffff1673ffffffffffffffffffffffffffffffffffffffff1673ffffffffffffffffffffffffffffffffffffffff1681526020019081526020016000206000018190555060005b815181101561017057600260405180604001604052808484815181106101065761010561041b565b5b60200260200101518152602001600081525090806001815401808255809150506001900390600052602060002090600202016000909190919091506000820151816000019081610156919061066b565b5060208201518160010155505080806001019150506100dd565b505061073d565b6000604051905090565b600080fd5b600080fd5b600080fd5b6000601f19601f8301169050919050565b7f4e487b7100000000000000000000000000000000000000000000000000000000600052604160045260246000fd5b6101d982610190565b810181811067ffffffffffffffff821117156101f8576101f76101a1565b5b80604052505050565b600061020b610177565b905061021782826101d0565b919050565b600067ffffffffffffffff821115610237576102366101a1565b5b602082029050602081019050919050565b600080fd5b600080fd5b600067ffffffffffffffff82111561026d5761026c6101a1565b5b61027682610190565b9050602081019050919050565b60005b838110156102a1578082015181840152602081019050610286565b60008484015250505050565b60006102c06102bb84610252565b610201565b9050828152602081018484840111156102dc576102db61024d565b5b6102e7848285610283565b509392505050565b600082601f8301126103045761030361018b565b5b81516103148482602086016102ad565b91505092915050565b600061033061032b8461021c565b610201565b9050808382526020820190506020840283018581111561035357610352610248565b5b835b8181101561039a57805167ffffffffffffffff8111156103785761037761018b565b5b80860161038589826102ef565b85526020850194505050602081019050610355565b5050509392505050565b600082601f8301126103b9576103b861018b565b5b81516103c984826020860161031d565b91505092915050565b6000602082840312156103e8576103e7610181565b5b600082015167ffffffffffffffff81111561040657610405610186565b5b610412848285016103a4565b91505092915050565b7f4e487b7100000000000000000000000000000000000000000000000000000000600052603260045260246000fd5b600081519050919050565b7f4e487b7100000000000000000000000000000000000000000000000000000000600052602260045260246000fd5b6000600282049050600182168061049c57607f821691505b6020821081036104af576104ae610455565b5b50919050565b60008190508160005260206000209050919050565b60006020601f8301049050919050565b600082821b905092915050565b6000600883026105177fffffffffffffffffffffffffffffffffffffffffffffffffffffffffffffffff826104da565b61052186836104da565b95508019841693508086168417925050509392505050565b6000819050919050565b6000819050919050565b600061056861056361055e84610539565b610543565b610539565b9050919050565b6000819050919050565b6105828361054d565b61059661058e8261056f565b8484546104e7565b825550505050565b600090565b6105ab61059e565b6105b6818484610579565b505050565b5b818110156105da576105cf6000826105a3565b6001810190506105bc565b5050565b601f82111561061f576105f0816104b5565b6105f9846104ca565b81016020851015610608578190505b61061c610614856104ca565b8301826105bb565b50505b505050565b600082821c905092915050565b600061064260001984600802610624565b1980831691505092915050565b600061065b8383610631565b9150826002028217905092915050565b6106748261044a565b67ffffffffffffffff81111561068d5761068c6101a1565b5b6106978254610484565b6106a28282856105de565b600060209050601f8311600181146106d557600084156106c3578287015190505b6106cd858261064f565b865550610735565b601f1984166106e3866104b5565b60005b8281101561070b578489015182556001820191506020850194506020810190506106e6565b868310156107285784890151610724601f891682610631565b8355505b6001600288020188555050505b505050505050565b6113858061074c6000396000f3fe608060405234801561001057600080fd5b50600436106100885760003560e01c806387f7b9751161005b57806387f7b975146101145780639e7b8d6114610132578063a3ec138d1461014e578063e2ba53f01461018157610088565b8063013cf08b1461008d578063124258c6146100be5780635c19a95c146100da578063609ff1bd146100f6575b600080fd5b6100a760048036038101906100a29190610bb1565b61019f565b6040516100b5929190610c7d565b60405180910390f35b6100d860048036038101906100d39190610bb1565b61025b565b005b6100f460048036038101906100ef9190610d0b565b6103a1565b005b6100fe6107ca565b60405161010b9190610d38565b60405180910390f35b61011c61084c565b6040516101299190610d62565b60405180910390f35b61014c60048036038101906101479190610d0b565b610870565b005b61016860048036038101906101639190610d0b565b610a5d565b6040516101789493929190610d98565b60405180910390f35b610189610aba565b6040516101969190610ddd565b60405180910390f35b600281815481106101af57600080fd5b90600052602060002090600202016000915090508060000180546101d290610e2e565b80601f01602080910402602001604051908101604052809291908181526020018280546101fe90610e2e565b801561024b5780601f106102205761010080835404028352916020019161024b565b820191906000526020600020905b81548152906001019060200180831161022e57829003601f168201915b5050505050908060010154905082565b6000600160003373ffffffffffffffffffffffffffffffffffffffff1673ffffffffffffffffffffffffffffffffffffffff168152602001908152602001600020905060008160000154036102e5576040517f08c379a00000000000000000000000000000000000000000000000000000000081526004016102dc90610eab565b60405180910390fd5b8060010160009054906101000a900460ff1615610337576040517f08c379a000000000000000000000000000000000000000000000000000000000815260040161032e90610f17565b60405180910390fd5b60018160010160006101000a81548160ff02191690831515021790555081816002018190555080600001546002838154811061037657610375610f37565b5b906000526020600020906002020160010160008282546103969190610f95565b925050819055505050565b6000600160003373ffffffffffffffffffffffffffffffffffffffff1673ffffffffffffffffffffffffffffffffffffffff1681526020019081526020016000209050600081600001540361042b576040517f08c379a000000000000000000000000000000000000000000000000000000000815260040161042290611015565b60405180910390fd5b8060010160009054906101000a900460ff161561047d576040517f08c379a000000000000000000000000000000000000000000000000000000000815260040161047490611081565b60405180910390fd5b3373ffffffffffffffffffffffffffffffffffffffff168273ffffffffffffffffffffffffffffffffffffffff16036104eb576040517f08c379a00000000000000000000000000000000000000000000000000000000081526004016104e2906110ed565b60405180910390fd5b5b600073ffffffffffffffffffffffffffffffffffffffff16600160008473ffffffffffffffffffffffffffffffffffffffff1673ffffffffffffffffffffffffffffffffffffffff16815260200190815260200160002060010160019054906101000a900473ffffffffffffffffffffffffffffffffffffffff1673ffffffffffffffffffffffffffffffffffffffff161461065a57600160008373ffffffffffffffffffffffffffffffffffffffff1673ffffffffffffffffffffffffffffffffffffffff16815260200190815260200160002060010160019054906101000a900473ffffffffffffffffffffffffffffffffffffffff1691503373ffffffffffffffffffffffffffffffffffffffff168273ffffffffffffffffffffffffffffffffffffffff1603610655576040517f08c379a000000000000000000000000000000000000000000000000000000000815260040161064c90611159565b60405180910390fd5b6104ec565b6000600160008473ffffffffffffffffffffffffffffffffffffffff1673ffffffffffffffffffffffffffffffffffffffff16815260200190815260200160002090506001816000015410156106e5576040517f08c379a00000000000000000000000000000000000000000000000000000000081526004016106dc906111eb565b60405180910390fd5b60018260010160006101000a81548160ff021916908315150217905550828260010160016101000a81548173ffffffffffffffffffffffffffffffffffffffff021916908373ffffffffffffffffffffffffffffffffffffffff1602179055508060010160009054906101000a900460ff16156107a5578160000154600282600201548154811061077957610778610f37565b5b906000526020600020906002020160010160008282546107999190610f95565b925050819055506107c5565b81600001548160000160008282546107bd9190610f95565b925050819055505b505050565b6000806000905060005b6002805490508110156108475781600282815481106107f6576107f5610f37565b5b906000526020600020906002020160010154111561083a576002818154811061082257610821610f37565b5b90600052602060002090600202016001015491508092505b80806001019150506107d4565b505090565b60008054906101000a900473ffffffffffffffffffffffffffffffffffffffff1681565b60008054906101000a900473ffffffffffffffffffffffffffffffffffffffff1673ffffffffffffffffffffffffffffffffffffffff163373ffffffffffffffffffffffffffffffffffffffff16146108fe576040517f08c379a00000000000000000000000000000000000000000000000000000000081526004016108f590611257565b60405180910390fd5b600160008273ffffffffffffffffffffffffffffffffffffffff1673ffffffffffffffffffffffffffffffffffffffff16815260200190815260200160002060010160009054906101000a900460ff161561098e576040517f08c379a0000000000000000000000000000000000000000000000000000000008152600401610985906112c3565b60405180910390fd5b6000600160008373ffffffffffffffffffffffffffffffffffffffff1673ffffffffffffffffffffffffffffffffffffffff1681526020019081526020016000206000015414610a13576040517f08c379a0000000000000000000000000000000000000000000000000000000008152600401610a0a9061132f565b60405180910390fd5b60018060008373ffffffffffffffffffffffffffffffffffffffff1673ffffffffffffffffffffffffffffffffffffffff1681526020019081526020016000206000018190555050565b60016020528060005260406000206000915090508060000154908060010160009054906101000a900460ff16908060010160019054906101000a900473ffffffffffffffffffffffffffffffffffffffff16908060020154905084565b60606002610ac66107ca565b81548110610ad757610ad6610f37565b5b90600052602060002090600202016000018054610af390610e2e565b80601f0160208091040260200160405190810160405280929190818152602001828054610b1f90610e2e565b8015610b6c5780601f10610b4157610100808354040283529160200191610b6c565b820191906000526020600020905b815481529060010190602001808311610b4f57829003601f168201915b5050505050905090565b600080fd5b6000819050919050565b610b8e81610b7b565b8114610b9957600080fd5b50565b600081359050610bab81610b85565b92915050565b600060208284031215610bc757610bc6610b76565b5b6000610bd584828501610b9c565b91505092915050565b600081519050919050565b600082825260208201905092915050565b60005b83811015610c18578082015181840152602081019050610bfd565b60008484015250505050565b6000601f19601f8301169050919050565b6000610c4082610bde565b610c4a8185610be9565b9350610c5a818560208601610bfa565b610c6381610c24565b840191505092915050565b610c7781610b7b565b82525050565b60006040820190508181036000830152610c978185610c35565b9050610ca66020830184610c6e565b9392505050565b600073ffffffffffffffffffffffffffffffffffffffff82169050919050565b6000610cd882610cad565b9050919050565b610ce881610ccd565b8114610cf357600080fd5b50565b600081359050610d0581610cdf565b92915050565b600060208284031215610d2157610d20610b76565b5b6000610d2f84828501610cf6565b91505092915050565b6000602082019050610d4d6000830184610c6e565b92915050565b610d5c81610ccd565b82525050565b6000602082019050610d776000830184610d53565b92915050565b60008115159050919050565b610d9281610d7d565b82525050565b6000608082019050610dad6000830187610c6e565b610dba6020830186610d89565b610dc76040830185610d53565b610dd46060830184610c6e565b95945050505050565b60006020820190508181036000830152610df78184610c35565b905092915050565b7f4e487b7100000000000000000000000000000000000000000000000000000000600052602260045260246000fd5b60006002820490506001821680610e4657607f821691505b602082108103610e5957610e58610dff565b5b50919050565b7f5b646f566f74655d20796f752068617665206e6f207765696768740000000000600082015250565b6000610e95601b83610be9565b9150610ea082610e5f565b602082019050919050565b60006020820190508181036000830152610ec481610e88565b9050919050565b7f5b646f566f74655d20796f7520766f7465640000000000000000000000000000600082015250565b6000610f01601283610be9565b9150610f0c82610ecb565b602082019050919050565b60006020820190508181036000830152610f3081610ef4565b9050919050565b7f4e487b7100000000000000000000000000000000000000000000000000000000600052603260045260246000fd5b7f4e487b7100000000000000000000000000000000000000000000000000000000600052601160045260246000fd5b6000610fa082610b7b565b9150610fab83610b7b565b9250828201905080821115610fc357610fc2610f66565b5b92915050565b7f5b64656c65676174655d20796f752068617665206e6f20776569676874000000600082015250565b6000610fff601d83610be9565b915061100a82610fc9565b602082019050919050565b6000602082019050818103600083015261102e81610ff2565b9050919050565b7f5b64656c65676174655d20796f7520616c726561647920766f74656400000000600082015250565b600061106b601c83610be9565b915061107682611035565b602082019050919050565b6000602082019050818103600083015261109a8161105e565b9050919050565b7f5b64656c65676174655d2034303320746f206769766520746f2073656c660000600082015250565b60006110d7601e83610be9565b91506110e2826110a1565b602082019050919050565b60006020820190508181036000830152611106816110ca565b9050919050565b7f5b64656c65676174655d206c6f6f702064656c65676174650000000000000000600082015250565b6000611143601883610be9565b915061114e8261110d565b602082019050919050565b6000602082019050818103600083015261117281611136565b9050919050565b7f5b64656c65676174655d2061667465722064656c65676174652c20726563656960008201527f7665722068617665206e6f207765696768740000000000000000000000000000602082015250565b60006111d5603283610be9565b91506111e082611179565b604082019050919050565b60006020820190508181036000830152611204816111c8565b9050919050565b7f5b676976655269676874546f566f74655d206e6f742063686169726d616e0000600082015250565b6000611241601e83610be9565b915061124c8261120b565b602082019050919050565b6000602082019050818103600083015261127081611234565b9050919050565b7f5b676976655269676874546f566f74655d2068617320766f7465640000000000600082015250565b60006112ad601b83610be9565b91506112b882611277565b602082019050919050565b600060208201905081810360008301526112dc816112a0565b9050919050565b7f5b676976655269676874546f566f74655d206861732077656967687473000000600082015250565b6000611319601d83610be9565b9150611324826112e3565b602082019050919050565b600060208201905081810360008301526113488161130c565b905091905056fea26469706673582212201e0275a270fbb14efcab93129c5407cdaf6910091c8ca42f94197ca45d51b3ed64736f6c634300081c0033",
  "linkReferences": {},
  "deployedLinkReferences": {}
}