{
  "_format": "hh-sol-artifact-1",
  "contractName": "MyVote",
  "sourceName": "contracts/MyVote.sol",
  "abi": [
    {
      "inputs": [
        {
          "internalType": "string[]",
          "name": "proposalNames",
          "type": "string[]"
        }
      ],
      "stateMutability": "nonpayable",
      "type": "constructor"
    },
    {
      "anonymous": false,
      "inputs": [
        {
          "indexed": true,
          "internalType": "address",
          "name": "from",
          "type": "address"
        },
        {
          "indexed": true,
          "internalType": "address",
          "name": "to",
          "type": "address"
        }
      ],
      "name": "Delegated",
      "type": "event"
    },
    {
      "anonymous": false,
      "inputs": [
        {
          "indexed": true,
          "internalType": "address",
          "name": "voter",
          "type": "address"
        }
      ],
      "name": "RightToVoteGranted",
      "type": "event"
    },
    {
      "anonymous": false,
      "inputs": [
        {
          "indexed": true,
          "internalType": "address",
          "name": "voter",
          "type": "address"
        },
        {
          "indexed": true,
          "internalType": "uint256",
          "name": "proposalIndex",
          "type": "uint256"
        },
        {
          "indexed": false,
          "internalType": "uint256",
          "name": "weight",
          "type": "uint256"
        }
      ],
      "name": "VoteCast",
      "type": "event"
    },
    {
      "inputs": [],
      "name": "chairman",
      "outputs": [
        {
          "internalType": "address",
          "name": "",
          "type": "address"
        }
      ],
      "stateMutability": "view",
      "type": "function"
    },
    {
      "inputs": [
        {
          "internalType": "address",
          "name": "to",
          "type": "address"
        }
      ],
      "name": "delegate",
      "outputs": [],
      "stateMutability": "nonpayable",
      "type": "function"
    },
    {
      "inputs": [
        {
          "internalType": "uint256",
          "name": "proposal",
          "type": "uint256"
        }
      ],
      "name": "doVote",
      "outputs": [],
      "stateMutability": "nonpayable",
      "type": "function"
    },
    {
      "inputs": [],
      "name": "getProposalsLength",
      "outputs": [
        {
          "internalType": "uint256",
          "name": "",
          "type": "uint256"
        }
      ],
      "stateMutability": "view",
      "type": "function"
    },
    {
      "inputs": [],
      "name": "getSummary",
      "outputs": [
        {
          "internalType": "address",
          "name": "chairman_",
          "type": "address"
        },
        {
          "internalType": "uint256",
          "name": "proposalCount_",
          "type": "uint256"
        },
        {
          "internalType": "string",
          "name": "winnerName_",
          "type": "string"
        }
      ],
      "stateMutability": "view",
      "type": "function"
    },
    {
      "inputs": [
        {
          "internalType": "address",
          "name": "voter",
          "type": "address"
        }
      ],
      "name": "giveRightToVote",
      "outputs": [],
      "stateMutability": "nonpayable",
      "type": "function"
    },
    {
      "inputs": [
        {
          "internalType": "uint256",
          "name": "",
          "type": "uint256"
        }
      ],
      "name": "proposals",
      "outputs": [
        {
          "internalType": "string",
          "name": "name",
          "type": "string"
        },
        {
          "internalType": "uint256",
          "name": "voteCount",
          "type": "uint256"
        }
      ],
      "stateMutability": "view",
      "type": "function"
    },
    {
      "inputs": [
        {
          "internalType": "address",
          "name": "",
          "type": "address"
        }
      ],
      "name": "voters",
      "outputs": [
        {
          "internalType": "uint256",
          "name": "weight",
          "type": "uint256"
        },
        {
          "internalType": "bool",
          "name": "voted",
          "type": "bool"
        },
        {
          "internalType": "address",
          "name": "delegateTo",
          "type": "address"
        },
        {
          "internalType": "uint256",
          "name": "voteTo",
          "type": "uint256"
        }
      ],
      "stateMutability": "view",
      "type": "function"
    },
    {
      "inputs": [],
      "name": "winnerName",
      "outputs": [
        {
          "internalType": "string",
          "name": "",
          "type": "string"
        }
      ],
      "stateMutability": "view",
      "type": "function"
    },
    {
      "inputs": [],
      "name": "winningProposal",
      "outputs": [
        {
          "internalType": "uint256",
          "name": "winningProposal_",
          "type": "uint256"
        }
      ],
      "stateMutability": "view",
      "type": "function"
    }
  ],
  "bytecode": "0x608060405234801561001057600080fd5b50604051611f66380380611f66833981810160405281019061003291906103d6565b336000806101000a81548173ffffffffffffffffffffffffffffffffffffffff021916908373ffffffffffffffffffffffffffffffffffffffff16021790555060018060008060009054906101000a900473ffffffffffffffffffffffffffffffffffffffff1673ffffffffffffffffffffffffffffffffffffffff1673ffffffffffffffffffffffffffffffffffffffff1681526020019081526020016000206000018190555060008151905060005b81811015610173576002604051806040016040528085848151811061010b5761010a61041f565b5b6020026020010151815260200160008152509080600181540180825580915050600190039060005260206000209060020201600090919091909150600082015181600001908161015b919061066f565b506020820151816001015550508060010190506100e3565b505050610741565b6000604051905090565b600080fd5b600080fd5b600080fd5b6000601f19601f8301169050919050565b7f4e487b7100000000000000000000000000000000000000000000000000000000600052604160045260246000fd5b6101dd82610194565b810181811067ffffffffffffffff821117156101fc576101fb6101a5565b5b80604052505050565b600061020f61017b565b905061021b82826101d4565b919050565b600067ffffffffffffffff82111561023b5761023a6101a5565b5b602082029050602081019050919050565b600080fd5b600080fd5b600067ffffffffffffffff821115610271576102706101a5565b5b61027a82610194565b9050602081019050919050565b60005b838110156102a557808201518184015260208101905061028a565b60008484015250505050565b60006102c46102bf84610256565b610205565b9050828152602081018484840111156102e0576102df610251565b5b6102eb848285610287565b509392505050565b600082601f8301126103085761030761018f565b5b81516103188482602086016102b1565b91505092915050565b600061033461032f84610220565b610205565b905080838252602082019050602084028301858111156103575761035661024c565b5b835b8181101561039e57805167ffffffffffffffff81111561037c5761037b61018f565b5b80860161038989826102f3565b85526020850194505050602081019050610359565b5050509392505050565b600082601f8301126103bd576103bc61018f565b5b81516103cd848260208601610321565b91505092915050565b6000602082840312156103ec576103eb610185565b5b600082015167ffffffffffffffff81111561040a5761040961018a565b5b610416848285016103a8565b91505092915050565b7f4e487b7100000000000000000000000000000000000000000000000000000000600052603260045260246000fd5b600081519050919050565b7f4e487b7100000000000000000000000000000000000000000000000000000000600052602260045260246000fd5b600060028204905060018216806104a057607f821691505b6020821081036104b3576104b2610459565b5b50919050565b60008190508160005260206000209050919050565b60006020601f8301049050919050565b600082821b905092915050565b60006008830261051b7fffffffffffffffffffffffffffffffffffffffffffffffffffffffffffffffff826104de565b61052586836104de565b95508019841693508086168417925050509392505050565b6000819050919050565b6000819050919050565b600061056c6105676105628461053d565b610547565b61053d565b9050919050565b6000819050919050565b61058683610551565b61059a61059282610573565b8484546104eb565b825550505050565b600090565b6105af6105a2565b6105ba81848461057d565b505050565b5b818110156105de576105d36000826105a7565b6001810190506105c0565b5050565b601f821115610623576105f4816104b9565b6105fd846104ce565b8101602085101561060c578190505b610620610618856104ce565b8301826105bf565b50505b505050565b600082821c905092915050565b600061064660001984600802610628565b1980831691505092915050565b600061065f8383610635565b9150826002028217905092915050565b6106788261044e565b67ffffffffffffffff811115610691576106906101a5565b5b61069b8254610488565b6106a68282856105e2565b600060209050601f8311600181146106d957600084156106c7578287015190505b6106d18582610653565b865550610739565b601f1984166106e7866104b9565b60005b8281101561070f578489015182556001820191506020850194506020810190506106ea565b8683101561072c5784890151610728601f891682610635565b8355505b6001600288020188555050505b505050505050565b611816806107506000396000f3fe608060405234801561001057600080fd5b506004361061009e5760003560e01c806387f7b9751161006657806387f7b9751461014a5780639e7b8d6114610168578063a3ec138d14610184578063bc378a73146101b7578063e2ba53f0146101d55761009e565b8063013cf08b146100a3578063124258c6146100d45780634051ddac146100f05780635c19a95c14610110578063609ff1bd1461012c575b600080fd5b6100bd60048036038101906100b89190610e03565b6101f3565b6040516100cb929190610ecf565b60405180910390f35b6100ee60048036038101906100e99190610e03565b6102af565b005b6100f861048f565b60405161010793929190610f40565b60405180910390f35b61012a60048036038101906101259190610faa565b61053a565b005b6101346109bd565b6040516101419190610fd7565b60405180910390f35b610152610a3f565b60405161015f9190610ff2565b60405180910390f35b610182600480360381019061017d9190610faa565b610a63565b005b61019e60048036038101906101999190610faa565b610c93565b6040516101ae9493929190611028565b60405180910390f35b6101bf610cf0565b6040516101cc9190610fd7565b60405180910390f35b6101dd610cfd565b6040516101ea919061106d565b60405180910390f35b6002818154811061020357600080fd5b9060005260206000209060020201600091509050806000018054610226906110be565b80601f0160208091040260200160405190810160405280929190818152602001828054610252906110be565b801561029f5780601f106102745761010080835404028352916020019161029f565b820191906000526020600020905b81548152906001019060200180831161028257829003601f168201915b5050505050908060010154905082565b60028054905081106102f6576040517f08c379a00000000000000000000000000000000000000000000000000000000081526004016102ed9061113b565b60405180910390fd5b6000600160003373ffffffffffffffffffffffffffffffffffffffff1673ffffffffffffffffffffffffffffffffffffffff16815260200190815260200160002090506000816000015403610380576040517f08c379a0000000000000000000000000000000000000000000000000000000008152600401610377906111a7565b60405180910390fd5b8060010160009054906101000a900460ff16156103d2576040517f08c379a00000000000000000000000000000000000000000000000000000000081526004016103c990611213565b60405180910390fd5b60018160010160006101000a81548160ff02191690831515021790555081816002018190555080600001546002838154811061041157610410611233565b5b906000526020600020906002020160010160008282546104319190611291565b92505081905550813373ffffffffffffffffffffffffffffffffffffffff167fb4cfecf70861b7b150d8337780d34fb4cbc2114b5fb1fe51a5c5fca1849f727483600001546040516104839190610fd7565b60405180910390a35050565b600080606060008054906101000a900473ffffffffffffffffffffffffffffffffffffffff166002805490503073ffffffffffffffffffffffffffffffffffffffff1663e2ba53f06040518163ffffffff1660e01b8152600401600060405180830381865afa158015610506573d6000803e3d6000fd5b505050506040513d6000823e3d601f19601f8201168201806040525081019061052f91906113eb565b925092509250909192565b6000600160003373ffffffffffffffffffffffffffffffffffffffff1673ffffffffffffffffffffffffffffffffffffffff168152602001908152602001600020905060008160000154036105c4576040517f08c379a00000000000000000000000000000000000000000000000000000000081526004016105bb90611480565b60405180910390fd5b8060010160009054906101000a900460ff1615610616576040517f08c379a000000000000000000000000000000000000000000000000000000000815260040161060d906114ec565b60405180910390fd5b3373ffffffffffffffffffffffffffffffffffffffff168273ffffffffffffffffffffffffffffffffffffffff1603610684576040517f08c379a000000000000000000000000000000000000000000000000000000000815260040161067b90611558565b60405180910390fd5b5b600073ffffffffffffffffffffffffffffffffffffffff16600160008473ffffffffffffffffffffffffffffffffffffffff1673ffffffffffffffffffffffffffffffffffffffff16815260200190815260200160002060010160019054906101000a900473ffffffffffffffffffffffffffffffffffffffff1673ffffffffffffffffffffffffffffffffffffffff16146107f357600160008373ffffffffffffffffffffffffffffffffffffffff1673ffffffffffffffffffffffffffffffffffffffff16815260200190815260200160002060010160019054906101000a900473ffffffffffffffffffffffffffffffffffffffff1691503373ffffffffffffffffffffffffffffffffffffffff168273ffffffffffffffffffffffffffffffffffffffff16036107ee576040517f08c379a00000000000000000000000000000000000000000000000000000000081526004016107e5906115c4565b60405180910390fd5b610685565b6000600160008473ffffffffffffffffffffffffffffffffffffffff1673ffffffffffffffffffffffffffffffffffffffff168152602001908152602001600020905060018160000154101561087e576040517f08c379a000000000000000000000000000000000000000000000000000000000815260040161087590611656565b60405180910390fd5b60018260010160006101000a81548160ff021916908315150217905550828260010160016101000a81548173ffffffffffffffffffffffffffffffffffffffff021916908373ffffffffffffffffffffffffffffffffffffffff1602179055508060010160009054906101000a900460ff161561093e578160000154600282600201548154811061091257610911611233565b5b906000526020600020906002020160010160008282546109329190611291565b9250508190555061095e565b81600001548160000160008282546109569190611291565b925050819055505b8273ffffffffffffffffffffffffffffffffffffffff163373ffffffffffffffffffffffffffffffffffffffff167f4bc154dd35d6a5cb9206482ecb473cdbf2473006d6bce728b9cc0741bcc59ea260405160405180910390a3505050565b6000806000600280549050905060005b81811015610a395782600282815481106109ea576109e9611233565b5b9060005260206000209060020201600101541115610a2e5760028181548110610a1657610a15611233565b5b90600052602060002090600202016001015492508093505b8060010190506109cd565b50505090565b60008054906101000a900473ffffffffffffffffffffffffffffffffffffffff1681565b60008054906101000a900473ffffffffffffffffffffffffffffffffffffffff1673ffffffffffffffffffffffffffffffffffffffff163373ffffffffffffffffffffffffffffffffffffffff1614610af1576040517f08c379a0000000000000000000000000000000000000000000000000000000008152600401610ae8906116c2565b60405180910390fd5b600160008273ffffffffffffffffffffffffffffffffffffffff1673ffffffffffffffffffffffffffffffffffffffff16815260200190815260200160002060010160009054906101000a900460ff1615610b81576040517f08c379a0000000000000000000000000000000000000000000000000000000008152600401610b789061172e565b60405180910390fd5b6000600160008373ffffffffffffffffffffffffffffffffffffffff1673ffffffffffffffffffffffffffffffffffffffff1681526020019081526020016000206000015414610c06576040517f08c379a0000000000000000000000000000000000000000000000000000000008152600401610bfd906117c0565b60405180910390fd5b60018060008373ffffffffffffffffffffffffffffffffffffffff1673ffffffffffffffffffffffffffffffffffffffff168152602001908152602001600020600001819055508073ffffffffffffffffffffffffffffffffffffffff167f310b865f1072132319e90a1e21e46f9e6b26f422bb3e8c2211e90ffbbdafb57a60405160405180910390a250565b60016020528060005260406000206000915090508060000154908060010160009054906101000a900460ff16908060010160019054906101000a900473ffffffffffffffffffffffffffffffffffffffff16908060020154905084565b6000600280549050905090565b60606002610d096109bd565b81548110610d1a57610d19611233565b5b90600052602060002090600202016000018054610d36906110be565b80601f0160208091040260200160405190810160405280929190818152602001828054610d62906110be565b8015610daf5780601f10610d8457610100808354040283529160200191610daf565b820191906000526020600020905b815481529060010190602001808311610d9257829003601f168201915b5050505050905090565b6000604051905090565b600080fd5b600080fd5b6000819050919050565b610de081610dcd565b8114610deb57600080fd5b50565b600081359050610dfd81610dd7565b92915050565b600060208284031215610e1957610e18610dc3565b5b6000610e2784828501610dee565b91505092915050565b600081519050919050565b600082825260208201905092915050565b60005b83811015610e6a578082015181840152602081019050610e4f565b60008484015250505050565b6000601f19601f8301169050919050565b6000610e9282610e30565b610e9c8185610e3b565b9350610eac818560208601610e4c565b610eb581610e76565b840191505092915050565b610ec981610dcd565b82525050565b60006040820190508181036000830152610ee98185610e87565b9050610ef86020830184610ec0565b9392505050565b600073ffffffffffffffffffffffffffffffffffffffff82169050919050565b6000610f2a82610eff565b9050919050565b610f3a81610f1f565b82525050565b6000606082019050610f556000830186610f31565b610f626020830185610ec0565b8181036040830152610f748184610e87565b9050949350505050565b610f8781610f1f565b8114610f9257600080fd5b50565b600081359050610fa481610f7e565b92915050565b600060208284031215610fc057610fbf610dc3565b5b6000610fce84828501610f95565b91505092915050565b6000602082019050610fec6000830184610ec0565b92915050565b60006020820190506110076000830184610f31565b92915050565b60008115159050919050565b6110228161100d565b82525050565b600060808201905061103d6000830187610ec0565b61104a6020830186611019565b6110576040830185610f31565b6110646060830184610ec0565b95945050505050565b600060208201905081810360008301526110878184610e87565b905092915050565b7f4e487b7100000000000000000000000000000000000000000000000000000000600052602260045260246000fd5b600060028204905060018216806110d657607f821691505b6020821081036110e9576110e861108f565b5b50919050565b7f5b646f566f74655d20696e76616c69642070726f706f73616c20696e64657800600082015250565b6000611125601f83610e3b565b9150611130826110ef565b602082019050919050565b6000602082019050818103600083015261115481611118565b9050919050565b7f5b646f566f74655d20796f752068617665206e6f207765696768740000000000600082015250565b6000611191601b83610e3b565b915061119c8261115b565b602082019050919050565b600060208201905081810360008301526111c081611184565b9050919050565b7f5b646f566f74655d20796f7520766f7465640000000000000000000000000000600082015250565b60006111fd601283610e3b565b9150611208826111c7565b602082019050919050565b6000602082019050818103600083015261122c816111f0565b9050919050565b7f4e487b7100000000000000000000000000000000000000000000000000000000600052603260045260246000fd5b7f4e487b7100000000000000000000000000000000000000000000000000000000600052601160045260246000fd5b600061129c82610dcd565b91506112a783610dcd565b92508282019050808211156112bf576112be611262565b5b92915050565b600080fd5b600080fd5b7f4e487b7100000000000000000000000000000000000000000000000000000000600052604160045260246000fd5b61130782610e76565b810181811067ffffffffffffffff82111715611326576113256112cf565b5b80604052505050565b6000611339610db9565b905061134582826112fe565b919050565b600067ffffffffffffffff821115611365576113646112cf565b5b61136e82610e76565b9050602081019050919050565b600061138e6113898461134a565b61132f565b9050828152602081018484840111156113aa576113a96112ca565b5b6113b5848285610e4c565b509392505050565b600082601f8301126113d2576113d16112c5565b5b81516113e284826020860161137b565b91505092915050565b60006020828403121561140157611400610dc3565b5b600082015167ffffffffffffffff81111561141f5761141e610dc8565b5b61142b848285016113bd565b91505092915050565b7f5b64656c65676174655d20796f752068617665206e6f20776569676874000000600082015250565b600061146a601d83610e3b565b915061147582611434565b602082019050919050565b600060208201905081810360008301526114998161145d565b9050919050565b7f5b64656c65676174655d20796f7520616c726561647920766f74656400000000600082015250565b60006114d6601c83610e3b565b91506114e1826114a0565b602082019050919050565b60006020820190508181036000830152611505816114c9565b9050919050565b7f5b64656c65676174655d2034303320746f206769766520746f2073656c660000600082015250565b6000611542601e83610e3b565b915061154d8261150c565b602082019050919050565b6000602082019050818103600083015261157181611535565b9050919050565b7f5b64656c65676174655d206c6f6f702064656c65676174650000000000000000600082015250565b60006115ae601883610e3b565b91506115b982611578565b602082019050919050565b600060208201905081810360008301526115dd816115a1565b9050919050565b7f5b64656c65676174655d2061667465722064656c65676174652c20726563656960008201527f7665722068617665206e6f207765696768740000000000000000000000000000602082015250565b6000611640603283610e3b565b915061164b826115e4565b604082019050919050565b6000602082019050818103600083015261166f81611633565b9050919050565b7f5b676976655269676874546f566f74655d206e6f742063686169726d616e0000600082015250565b60006116ac601e83610e3b565b91506116b782611676565b602082019050919050565b600060208201905081810360008301526116db8161169f565b9050919050565b7f5b676976655269676874546f566f74655d2068617320766f7465640000000000600082015250565b6000611718601b83610e3b565b9150611723826116e2565b602082019050919050565b600060208201905081810360008301526117478161170b565b9050919050565b7f5b676976655269676874546f566f74655d20616c72656164792068617320776560008201527f6967687400000000000000000000000000000000000000000000000000000000602082015250565b60006117aa602483610e3b565b91506117b58261174e565b604082019050919050565b600060208201905081810360008301526117d98161179d565b905091905056fea2646970667358221220b39f0a8dd20ba5cadc42fb44f121fc48bb41b4db1d8b76ade252eafea794ef7064736f6c634300081c0033",
  "linkReferences": {},
  "deployedLinkReferences": {}
}