{
	"data": {
		"bytecode": {
			"linkReferences": {},
			"object": "608060405260015f556040518060400160405280600b81526020017f68656c6c6f20776f726c64000000000000000000000000000000000000000000815250600190816200004e9190620002c6565b503480156200005b575f80fd5b50620003aa565b5f81519050919050565b7f4e487b71000000000000000000000000000000000000000000000000000000005f52604160045260245ffd5b7f4e487b71000000000000000000000000000000000000000000000000000000005f52602260045260245ffd5b5f6002820490506001821680620000de57607f821691505b602082108103620000f457620000f362000099565b5b50919050565b5f819050815f5260205f209050919050565b5f6020601f8301049050919050565b5f82821b905092915050565b5f60088302620001587fffffffffffffffffffffffffffffffffffffffffffffffffffffffffffffffff826200011b565b6200016486836200011b565b95508019841693508086168417925050509392505050565b5f819050919050565b5f819050919050565b5f620001ae620001a8620001a2846200017c565b62000185565b6200017c565b9050919050565b5f819050919050565b620001c9836200018e565b620001e1620001d882620001b5565b84845462000127565b825550505050565b5f90565b620001f7620001e9565b62000204818484620001be565b505050565b5b818110156200022b576200021f5f82620001ed565b6001810190506200020a565b5050565b601f8211156200027a576200024481620000fa565b6200024f846200010c565b810160208510156200025f578190505b620002776200026e856200010c565b83018262000209565b50505b505050565b5f82821c905092915050565b5f6200029c5f19846008026200027f565b1980831691505092915050565b5f620002b683836200028b565b9150826002028217905092915050565b620002d18262000062565b67ffffffffffffffff811115620002ed57620002ec6200006c565b5b620002f98254620000c6565b620003068282856200022f565b5f60209050601f8311600181146200033c575f841562000327578287015190505b620003338582620002a9565b865550620003a2565b601f1984166200034c86620000fa565b5f5b8281101562000375578489015182556001820191506020850194506020810190506200034e565b8683101562000395578489015162000391601f8916826200028b565b8355505b6001600288020188555050505b505050505050565b61078f80620003b85f395ff3fe608060405234801561000f575f80fd5b506004361061003f575f3560e01c80630bf803e4146100435780639272d95014610073578063ef5fb05b1461008f575b5f80fd5b61005d600480360381019061005891906102c9565b6100ad565b60405161006a919061038a565b60405180910390f35b61008d600480360381019061008891906102c9565b6100d9565b005b6100976100ec565b6040516100a4919061038a565b60405180910390f35b60606001826040516020016100c39291906104d3565b6040516020818303038152906040529050919050565b80600190816100e8919061068a565b5050565b6060600180546100fb906103d7565b80601f0160208091040260200160405190810160405280929190818152602001828054610127906103d7565b80156101725780601f1061014957610100808354040283529160200191610172565b820191905f5260205f20905b81548152906001019060200180831161015557829003601f168201915b5050505050905090565b5f604051905090565b5f80fd5b5f80fd5b5f80fd5b5f80fd5b5f601f19601f8301169050919050565b7f4e487b71000000000000000000000000000000000000000000000000000000005f52604160045260245ffd5b6101db82610195565b810181811067ffffffffffffffff821117156101fa576101f96101a5565b5b80604052505050565b5f61020c61017c565b905061021882826101d2565b919050565b5f67ffffffffffffffff821115610237576102366101a5565b5b61024082610195565b9050602081019050919050565b828183375f83830152505050565b5f61026d6102688461021d565b610203565b90508281526020810184848401111561028957610288610191565b5b61029484828561024d565b509392505050565b5f82601f8301126102b0576102af61018d565b5b81356102c084826020860161025b565b91505092915050565b5f602082840312156102de576102dd610185565b5b5f82013567ffffffffffffffff8111156102fb576102fa610189565b5b6103078482850161029c565b91505092915050565b5f81519050919050565b5f82825260208201905092915050565b5f5b8381101561034757808201518184015260208101905061032c565b5f8484015250505050565b5f61035c82610310565b610366818561031a565b935061037681856020860161032a565b61037f81610195565b840191505092915050565b5f6020820190508181035f8301526103a28184610352565b905092915050565b7f4e487b71000000000000000000000000000000000000000000000000000000005f52602260045260245ffd5b5f60028204905060018216806103ee57607f821691505b602082108103610401576104006103aa565b5b50919050565b5f81905092915050565b5f819050815f5260205f209050919050565b5f815461042f816103d7565b6104398186610407565b9450600182165f811461045357600181146104685761049a565b60ff198316865281151582028601935061049a565b61047185610411565b5f5b8381101561049257815481890152600182019150602081019050610473565b838801955050505b50505092915050565b5f6104ad82610310565b6104b78185610407565b93506104c781856020860161032a565b80840191505092915050565b5f6104de8285610423565b91506104ea82846104a3565b91508190509392505050565b5f6020601f8301049050919050565b5f82821b905092915050565b5f600883026105407fffffffffffffffffffffffffffffffffffffffffffffffffffffffffffffffff82610505565b61054a8683610505565b95508019841693508086168417925050509392505050565b5f819050919050565b5f819050919050565b5f61058e61058961058484610562565b61056b565b610562565b9050919050565b5f819050919050565b6105a783610574565b6105bb6105b382610595565b848454610511565b825550505050565b5f90565b6105cf6105c3565b6105da81848461059e565b505050565b5b818110156105fd576105f25f826105c7565b6001810190506105e0565b5050565b601f8211156106425761061381610411565b61061c846104f6565b8101602085101561062b578190505b61063f610637856104f6565b8301826105df565b50505b505050565b5f82821c905092915050565b5f6106625f1984600802610647565b1980831691505092915050565b5f61067a8383610653565b9150826002028217905092915050565b61069382610310565b67ffffffffffffffff8111156106ac576106ab6101a5565b5b6106b682546103d7565b6106c1828285610601565b5f60209050601f8311600181146106f2575f84156106e0578287015190505b6106ea858261066f565b865550610751565b601f19841661070086610411565b5f5b8281101561072757848901518255600182019150602085019450602081019050610702565b868310156107445784890151610740601f891682610653565b8355505b6001600288020188555050505b50505050505056fea26469706673582212209e10999efa86f07b7e2b7b5c17bd3a216cb9171830efd694f9c1acd48aa490e564736f6c63430008180033",
			"opcodes": "PUSH1 0x80 PUSH1 0x40 MSTORE PUSH1 0x1 PUSH0 SSTORE PUSH1 0x40 MLOAD DUP1 PUSH1 0x40 ADD PUSH1 0x40 MSTORE DUP1 PUSH1 0xB DUP2 MSTORE PUSH1 0x20 ADD PUSH32 0x68656C6C6F20776F726C64000000000000000000000000000000000000000000 DUP2 MSTORE POP PUSH1 0x1 SWAP1 DUP2 PUSH3 0x4E SWAP2 SWAP1 PUSH3 0x2C6 JUMP JUMPDEST POP CALLVALUE DUP1 ISZERO PUSH3 0x5B JUMPI PUSH0 DUP1 REVERT JUMPDEST POP PUSH3 0x3AA JUMP JUMPDEST PUSH0 DUP2 MLOAD SWAP1 POP SWAP2 SWAP1 POP JUMP JUMPDEST PUSH32 0x4E487B7100000000000000000000000000000000000000000000000000000000 PUSH0 MSTORE PUSH1 0x41 PUSH1 0x4 MSTORE PUSH1 0x24 PUSH0 REVERT JUMPDEST PUSH32 0x4E487B7100000000000000000000000000000000000000000000000000000000 PUSH0 MSTORE PUSH1 0x22 PUSH1 0x4 MSTORE PUSH1 0x24 PUSH0 REVERT JUMPDEST PUSH0 PUSH1 0x2 DUP3 DIV SWAP1 POP PUSH1 0x1 DUP3 AND DUP1 PUSH3 0xDE JUMPI PUSH1 0x7F DUP3 AND SWAP2 POP JUMPDEST PUSH1 0x20 DUP3 LT DUP2 SUB PUSH3 0xF4 JUMPI PUSH3 0xF3 PUSH3 0x99 JUMP JUMPDEST JUMPDEST POP SWAP2 SWAP1 POP JUMP JUMPDEST PUSH0 DUP2 SWAP1 POP DUP2 PUSH0 MSTORE PUSH1 0x20 PUSH0 KECCAK256 SWAP1 POP SWAP2 SWAP1 POP JUMP JUMPDEST PUSH0 PUSH1 0x20 PUSH1 0x1F DUP4 ADD DIV SWAP1 POP SWAP2 SWAP1 POP JUMP JUMPDEST PUSH0 DUP3 DUP3 SHL SWAP1 POP SWAP3 SWAP2 POP POP JUMP JUMPDEST PUSH0 PUSH1 0x8 DUP4 MUL PUSH3 0x158 PUSH32 0xFFFFFFFFFFFFFFFFFFFFFFFFFFFFFFFFFFFFFFFFFFFFFFFFFFFFFFFFFFFFFFFF DUP3 PUSH3 0x11B JUMP JUMPDEST PUSH3 0x164 DUP7 DUP4 PUSH3 0x11B JUMP JUMPDEST SWAP6 POP DUP1 NOT DUP5 AND SWAP4 POP DUP1 DUP7 AND DUP5 OR SWAP3 POP POP POP SWAP4 SWAP3 POP POP POP JUMP JUMPDEST PUSH0 DUP2 SWAP1 POP SWAP2 SWAP1 POP JUMP JUMPDEST PUSH0 DUP2 SWAP1 POP SWAP2 SWAP1 POP JUMP JUMPDEST PUSH0 PUSH3 0x1AE PUSH3 0x1A8 PUSH3 0x1A2 DUP5 PUSH3 0x17C JUMP JUMPDEST PUSH3 0x185 JUMP JUMPDEST PUSH3 0x17C JUMP JUMPDEST SWAP1 POP SWAP2 SWAP1 POP JUMP JUMPDEST PUSH0 DUP2 SWAP1 POP SWAP2 SWAP1 POP JUMP JUMPDEST PUSH3 0x1C9 DUP4 PUSH3 0x18E JUMP JUMPDEST PUSH3 0x1E1 PUSH3 0x1D8 DUP3 PUSH3 0x1B5 JUMP JUMPDEST DUP5 DUP5 SLOAD PUSH3 0x127 JUMP JUMPDEST DUP3 SSTORE POP POP POP POP JUMP JUMPDEST PUSH0 SWAP1 JUMP JUMPDEST PUSH3 0x1F7 PUSH3 0x1E9 JUMP JUMPDEST PUSH3 0x204 DUP2 DUP5 DUP5 PUSH3 0x1BE JUMP JUMPDEST POP POP POP JUMP JUMPDEST JUMPDEST DUP2 DUP2 LT ISZERO PUSH3 0x22B JUMPI PUSH3 0x21F PUSH0 DUP3 PUSH3 0x1ED JUMP JUMPDEST PUSH1 0x1 DUP2 ADD SWAP1 POP PUSH3 0x20A JUMP JUMPDEST POP POP JUMP JUMPDEST PUSH1 0x1F DUP3 GT ISZERO PUSH3 0x27A JUMPI PUSH3 0x244 DUP2 PUSH3 0xFA JUMP JUMPDEST PUSH3 0x24F DUP5 PUSH3 0x10C JUMP JUMPDEST DUP2 ADD PUSH1 0x20 DUP6 LT ISZERO PUSH3 0x25F JUMPI DUP2 SWAP1 POP JUMPDEST PUSH3 0x277 PUSH3 0x26E DUP6 PUSH3 0x10C JUMP JUMPDEST DUP4 ADD DUP3 PUSH3 0x209 JUMP JUMPDEST POP POP JUMPDEST POP POP POP JUMP JUMPDEST PUSH0 DUP3 DUP3 SHR SWAP1 POP SWAP3 SWAP2 POP POP JUMP JUMPDEST PUSH0 PUSH3 0x29C PUSH0 NOT DUP5 PUSH1 0x8 MUL PUSH3 0x27F JUMP JUMPDEST NOT DUP1 DUP4 AND SWAP2 POP POP SWAP3 SWAP2 POP POP JUMP JUMPDEST PUSH0 PUSH3 0x2B6 DUP4 DUP4 PUSH3 0x28B JUMP JUMPDEST SWAP2 POP DUP3 PUSH1 0x2 MUL DUP3 OR SWAP1 POP SWAP3 SWAP2 POP POP JUMP JUMPDEST PUSH3 0x2D1 DUP3 PUSH3 0x62 JUMP JUMPDEST PUSH8 0xFFFFFFFFFFFFFFFF DUP2 GT ISZERO PUSH3 0x2ED JUMPI PUSH3 0x2EC PUSH3 0x6C JUMP JUMPDEST JUMPDEST PUSH3 0x2F9 DUP3 SLOAD PUSH3 0xC6 JUMP JUMPDEST PUSH3 0x306 DUP3 DUP3 DUP6 PUSH3 0x22F JUMP JUMPDEST PUSH0 PUSH1 0x20 SWAP1 POP PUSH1 0x1F DUP4 GT PUSH1 0x1 DUP2 EQ PUSH3 0x33C JUMPI PUSH0 DUP5 ISZERO PUSH3 0x327 JUMPI DUP3 DUP8 ADD MLOAD SWAP1 POP JUMPDEST PUSH3 0x333 DUP6 DUP3 PUSH3 0x2A9 JUMP JUMPDEST DUP7 SSTORE POP PUSH3 0x3A2 JUMP JUMPDEST PUSH1 0x1F NOT DUP5 AND PUSH3 0x34C DUP7 PUSH3 0xFA JUMP JUMPDEST PUSH0 JUMPDEST DUP3 DUP2 LT ISZERO PUSH3 0x375 JUMPI DUP5 DUP10 ADD MLOAD DUP3 SSTORE PUSH1 0x1 DUP3 ADD SWAP2 POP PUSH1 0x20 DUP6 ADD SWAP5 POP PUSH1 0x20 DUP2 ADD SWAP1 POP PUSH3 0x34E JUMP JUMPDEST DUP7 DUP4 LT ISZERO PUSH3 0x395 JUMPI DUP5 DUP10 ADD MLOAD PUSH3 0x391 PUSH1 0x1F DUP10 AND DUP3 PUSH3 0x28B JUMP JUMPDEST DUP4 SSTORE POP JUMPDEST PUSH1 0x1 PUSH1 0x2 DUP9 MUL ADD DUP9 SSTORE POP POP POP JUMPDEST POP POP POP POP POP POP JUMP JUMPDEST PUSH2 0x78F DUP1 PUSH3 0x3B8 PUSH0 CODECOPY PUSH0 RETURN INVALID PUSH1 0x80 PUSH1 0x40 MSTORE CALLVALUE DUP1 ISZERO PUSH2 0xF JUMPI PUSH0 DUP1 REVERT JUMPDEST POP PUSH1 0x4 CALLDATASIZE LT PUSH2 0x3F JUMPI PUSH0 CALLDATALOAD PUSH1 0xE0 SHR DUP1 PUSH4 0xBF803E4 EQ PUSH2 0x43 JUMPI DUP1 PUSH4 0x9272D950 EQ PUSH2 0x73 JUMPI DUP1 PUSH4 0xEF5FB05B EQ PUSH2 0x8F JUMPI JUMPDEST PUSH0 DUP1 REVERT JUMPDEST PUSH2 0x5D PUSH1 0x4 DUP1 CALLDATASIZE SUB DUP2 ADD SWAP1 PUSH2 0x58 SWAP2 SWAP1 PUSH2 0x2C9 JUMP JUMPDEST PUSH2 0xAD JUMP JUMPDEST PUSH1 0x40 MLOAD PUSH2 0x6A SWAP2 SWAP1 PUSH2 0x38A JUMP JUMPDEST PUSH1 0x40 MLOAD DUP1 SWAP2 SUB SWAP1 RETURN JUMPDEST PUSH2 0x8D PUSH1 0x4 DUP1 CALLDATASIZE SUB DUP2 ADD SWAP1 PUSH2 0x88 SWAP2 SWAP1 PUSH2 0x2C9 JUMP JUMPDEST PUSH2 0xD9 JUMP JUMPDEST STOP JUMPDEST PUSH2 0x97 PUSH2 0xEC JUMP JUMPDEST PUSH1 0x40 MLOAD PUSH2 0xA4 SWAP2 SWAP1 PUSH2 0x38A JUMP JUMPDEST PUSH1 0x40 MLOAD DUP1 SWAP2 SUB SWAP1 RETURN JUMPDEST PUSH1 0x60 PUSH1 0x1 DUP3 PUSH1 0x40 MLOAD PUSH1 0x20 ADD PUSH2 0xC3 SWAP3 SWAP2 SWAP1 PUSH2 0x4D3 JUMP JUMPDEST PUSH1 0x40 MLOAD PUSH1 0x20 DUP2 DUP4 SUB SUB DUP2 MSTORE SWAP1 PUSH1 0x40 MSTORE SWAP1 POP SWAP2 SWAP1 POP JUMP JUMPDEST DUP1 PUSH1 0x1 SWAP1 DUP2 PUSH2 0xE8 SWAP2 SWAP1 PUSH2 0x68A JUMP JUMPDEST POP POP JUMP JUMPDEST PUSH1 0x60 PUSH1 0x1 DUP1 SLOAD PUSH2 0xFB SWAP1 PUSH2 0x3D7 JUMP JUMPDEST DUP1 PUSH1 0x1F ADD PUSH1 0x20 DUP1 SWAP2 DIV MUL PUSH1 0x20 ADD PUSH1 0x40 MLOAD SWAP1 DUP2 ADD PUSH1 0x40 MSTORE DUP1 SWAP3 SWAP2 SWAP1 DUP2 DUP2 MSTORE PUSH1 0x20 ADD DUP3 DUP1 SLOAD PUSH2 0x127 SWAP1 PUSH2 0x3D7 JUMP JUMPDEST DUP1 ISZERO PUSH2 0x172 JUMPI DUP1 PUSH1 0x1F LT PUSH2 0x149 JUMPI PUSH2 0x100 DUP1 DUP4 SLOAD DIV MUL DUP4 MSTORE SWAP2 PUSH1 0x20 ADD SWAP2 PUSH2 0x172 JUMP JUMPDEST DUP3 ADD SWAP2 SWAP1 PUSH0 MSTORE PUSH1 0x20 PUSH0 KECCAK256 SWAP1 JUMPDEST DUP2 SLOAD DUP2 MSTORE SWAP1 PUSH1 0x1 ADD SWAP1 PUSH1 0x20 ADD DUP1 DUP4 GT PUSH2 0x155 JUMPI DUP3 SWAP1 SUB PUSH1 0x1F AND DUP3 ADD SWAP2 JUMPDEST POP POP POP POP POP SWAP1 POP SWAP1 JUMP JUMPDEST PUSH0 PUSH1 0x40 MLOAD SWAP1 POP SWAP1 JUMP JUMPDEST PUSH0 DUP1 REVERT JUMPDEST PUSH0 DUP1 REVERT JUMPDEST PUSH0 DUP1 REVERT JUMPDEST PUSH0 DUP1 REVERT JUMPDEST PUSH0 PUSH1 0x1F NOT PUSH1 0x1F DUP4 ADD AND SWAP1 POP SWAP2 SWAP1 POP JUMP JUMPDEST PUSH32 0x4E487B7100000000000000000000000000000000000000000000000000000000 PUSH0 MSTORE PUSH1 0x41 PUSH1 0x4 MSTORE PUSH1 0x24 PUSH0 REVERT JUMPDEST PUSH2 0x1DB DUP3 PUSH2 0x195 JUMP JUMPDEST DUP2 ADD DUP2 DUP2 LT PUSH8 0xFFFFFFFFFFFFFFFF DUP3 GT OR ISZERO PUSH2 0x1FA JUMPI PUSH2 0x1F9 PUSH2 0x1A5 JUMP JUMPDEST JUMPDEST DUP1 PUSH1 0x40 MSTORE POP POP POP JUMP JUMPDEST PUSH0 PUSH2 0x20C PUSH2 0x17C JUMP JUMPDEST SWAP1 POP PUSH2 0x218 DUP3 DUP3 PUSH2 0x1D2 JUMP JUMPDEST SWAP2 SWAP1 POP JUMP JUMPDEST PUSH0 PUSH8 0xFFFFFFFFFFFFFFFF DUP3 GT ISZERO PUSH2 0x237 JUMPI PUSH2 0x236 PUSH2 0x1A5 JUMP JUMPDEST JUMPDEST PUSH2 0x240 DUP3 PUSH2 0x195 JUMP JUMPDEST SWAP1 POP PUSH1 0x20 DUP2 ADD SWAP1 POP SWAP2 SWAP1 POP JUMP JUMPDEST DUP3 DUP2 DUP4 CALLDATACOPY PUSH0 DUP4 DUP4 ADD MSTORE POP POP POP JUMP JUMPDEST PUSH0 PUSH2 0x26D PUSH2 0x268 DUP5 PUSH2 0x21D JUMP JUMPDEST PUSH2 0x203 JUMP JUMPDEST SWAP1 POP DUP3 DUP2 MSTORE PUSH1 0x20 DUP2 ADD DUP5 DUP5 DUP5 ADD GT ISZERO PUSH2 0x289 JUMPI PUSH2 0x288 PUSH2 0x191 JUMP JUMPDEST JUMPDEST PUSH2 0x294 DUP5 DUP3 DUP6 PUSH2 0x24D JUMP JUMPDEST POP SWAP4 SWAP3 POP POP POP JUMP JUMPDEST PUSH0 DUP3 PUSH1 0x1F DUP4 ADD SLT PUSH2 0x2B0 JUMPI PUSH2 0x2AF PUSH2 0x18D JUMP JUMPDEST JUMPDEST DUP2 CALLDATALOAD PUSH2 0x2C0 DUP5 DUP3 PUSH1 0x20 DUP7 ADD PUSH2 0x25B JUMP JUMPDEST SWAP2 POP POP SWAP3 SWAP2 POP POP JUMP JUMPDEST PUSH0 PUSH1 0x20 DUP3 DUP5 SUB SLT ISZERO PUSH2 0x2DE JUMPI PUSH2 0x2DD PUSH2 0x185 JUMP JUMPDEST JUMPDEST PUSH0 DUP3 ADD CALLDATALOAD PUSH8 0xFFFFFFFFFFFFFFFF DUP2 GT ISZERO PUSH2 0x2FB JUMPI PUSH2 0x2FA PUSH2 0x189 JUMP JUMPDEST JUMPDEST PUSH2 0x307 DUP5 DUP3 DUP6 ADD PUSH2 0x29C JUMP JUMPDEST SWAP2 POP POP SWAP3 SWAP2 POP POP JUMP JUMPDEST PUSH0 DUP2 MLOAD SWAP1 POP SWAP2 SWAP1 POP JUMP JUMPDEST PUSH0 DUP3 DUP3 MSTORE PUSH1 0x20 DUP3 ADD SWAP1 POP SWAP3 SWAP2 POP POP JUMP JUMPDEST PUSH0 JUMPDEST DUP4 DUP2 LT ISZERO PUSH2 0x347 JUMPI DUP1 DUP3 ADD MLOAD DUP2 DUP5 ADD MSTORE PUSH1 0x20 DUP2 ADD SWAP1 POP PUSH2 0x32C JUMP JUMPDEST PUSH0 DUP5 DUP5 ADD MSTORE POP POP POP POP JUMP JUMPDEST PUSH0 PUSH2 0x35C DUP3 PUSH2 0x310 JUMP JUMPDEST PUSH2 0x366 DUP2 DUP6 PUSH2 0x31A JUMP JUMPDEST SWAP4 POP PUSH2 0x376 DUP2 DUP6 PUSH1 0x20 DUP7 ADD PUSH2 0x32A JUMP JUMPDEST PUSH2 0x37F DUP2 PUSH2 0x195 JUMP JUMPDEST DUP5 ADD SWAP2 POP POP SWAP3 SWAP2 POP POP JUMP JUMPDEST PUSH0 PUSH1 0x20 DUP3 ADD SWAP1 POP DUP2 DUP2 SUB PUSH0 DUP4 ADD MSTORE PUSH2 0x3A2 DUP2 DUP5 PUSH2 0x352 JUMP JUMPDEST SWAP1 POP SWAP3 SWAP2 POP POP JUMP JUMPDEST PUSH32 0x4E487B7100000000000000000000000000000000000000000000000000000000 PUSH0 MSTORE PUSH1 0x22 PUSH1 0x4 MSTORE PUSH1 0x24 PUSH0 REVERT JUMPDEST PUSH0 PUSH1 0x2 DUP3 DIV SWAP1 POP PUSH1 0x1 DUP3 AND DUP1 PUSH2 0x3EE JUMPI PUSH1 0x7F DUP3 AND SWAP2 POP JUMPDEST PUSH1 0x20 DUP3 LT DUP2 SUB PUSH2 0x401 JUMPI PUSH2 0x400 PUSH2 0x3AA JUMP JUMPDEST JUMPDEST POP SWAP2 SWAP1 POP JUMP JUMPDEST PUSH0 DUP2 SWAP1 POP SWAP3 SWAP2 POP POP JUMP JUMPDEST PUSH0 DUP2 SWAP1 POP DUP2 PUSH0 MSTORE PUSH1 0x20 PUSH0 KECCAK256 SWAP1 POP SWAP2 SWAP1 POP JUMP JUMPDEST PUSH0 DUP2 SLOAD PUSH2 0x42F DUP2 PUSH2 0x3D7 JUMP JUMPDEST PUSH2 0x439 DUP2 DUP7 PUSH2 0x407 JUMP JUMPDEST SWAP5 POP PUSH1 0x1 DUP3 AND PUSH0 DUP2 EQ PUSH2 0x453 JUMPI PUSH1 0x1 DUP2 EQ PUSH2 0x468 JUMPI PUSH2 0x49A JUMP JUMPDEST PUSH1 0xFF NOT DUP4 AND DUP7 MSTORE DUP2 ISZERO ISZERO DUP3 MUL DUP7 ADD SWAP4 POP PUSH2 0x49A JUMP JUMPDEST PUSH2 0x471 DUP6 PUSH2 0x411 JUMP JUMPDEST PUSH0 JUMPDEST DUP4 DUP2 LT ISZERO PUSH2 0x492 JUMPI DUP2 SLOAD DUP2 DUP10 ADD MSTORE PUSH1 0x1 DUP3 ADD SWAP2 POP PUSH1 0x20 DUP2 ADD SWAP1 POP PUSH2 0x473 JUMP JUMPDEST DUP4 DUP9 ADD SWAP6 POP POP POP JUMPDEST POP POP POP SWAP3 SWAP2 POP POP JUMP JUMPDEST PUSH0 PUSH2 0x4AD DUP3 PUSH2 0x310 JUMP JUMPDEST PUSH2 0x4B7 DUP2 DUP6 PUSH2 0x407 JUMP JUMPDEST SWAP4 POP PUSH2 0x4C7 DUP2 DUP6 PUSH1 0x20 DUP7 ADD PUSH2 0x32A JUMP JUMPDEST DUP1 DUP5 ADD SWAP2 POP POP SWAP3 SWAP2 POP POP JUMP JUMPDEST PUSH0 PUSH2 0x4DE DUP3 DUP6 PUSH2 0x423 JUMP JUMPDEST SWAP2 POP PUSH2 0x4EA DUP3 DUP5 PUSH2 0x4A3 JUMP JUMPDEST SWAP2 POP DUP2 SWAP1 POP SWAP4 SWAP3 POP POP POP JUMP JUMPDEST PUSH0 PUSH1 0x20 PUSH1 0x1F DUP4 ADD DIV SWAP1 POP SWAP2 SWAP1 POP JUMP JUMPDEST PUSH0 DUP3 DUP3 SHL SWAP1 POP SWAP3 SWAP2 POP POP JUMP JUMPDEST PUSH0 PUSH1 0x8 DUP4 MUL PUSH2 0x540 PUSH32 0xFFFFFFFFFFFFFFFFFFFFFFFFFFFFFFFFFFFFFFFFFFFFFFFFFFFFFFFFFFFFFFFF DUP3 PUSH2 0x505 JUMP JUMPDEST PUSH2 0x54A DUP7 DUP4 PUSH2 0x505 JUMP JUMPDEST SWAP6 POP DUP1 NOT DUP5 AND SWAP4 POP DUP1 DUP7 AND DUP5 OR SWAP3 POP POP POP SWAP4 SWAP3 POP POP POP JUMP JUMPDEST PUSH0 DUP2 SWAP1 POP SWAP2 SWAP1 POP JUMP JUMPDEST PUSH0 DUP2 SWAP1 POP SWAP2 SWAP1 POP JUMP JUMPDEST PUSH0 PUSH2 0x58E PUSH2 0x589 PUSH2 0x584 DUP5 PUSH2 0x562 JUMP JUMPDEST PUSH2 0x56B JUMP JUMPDEST PUSH2 0x562 JUMP JUMPDEST SWAP1 POP SWAP2 SWAP1 POP JUMP JUMPDEST PUSH0 DUP2 SWAP1 POP SWAP2 SWAP1 POP JUMP JUMPDEST PUSH2 0x5A7 DUP4 PUSH2 0x574 JUMP JUMPDEST PUSH2 0x5BB PUSH2 0x5B3 DUP3 PUSH2 0x595 JUMP JUMPDEST DUP5 DUP5 SLOAD PUSH2 0x511 JUMP JUMPDEST DUP3 SSTORE POP POP POP POP JUMP JUMPDEST PUSH0 SWAP1 JUMP JUMPDEST PUSH2 0x5CF PUSH2 0x5C3 JUMP JUMPDEST PUSH2 0x5DA DUP2 DUP5 DUP5 PUSH2 0x59E JUMP JUMPDEST POP POP POP JUMP JUMPDEST JUMPDEST DUP2 DUP2 LT ISZERO PUSH2 0x5FD JUMPI PUSH2 0x5F2 PUSH0 DUP3 PUSH2 0x5C7 JUMP JUMPDEST PUSH1 0x1 DUP2 ADD SWAP1 POP PUSH2 0x5E0 JUMP JUMPDEST POP POP JUMP JUMPDEST PUSH1 0x1F DUP3 GT ISZERO PUSH2 0x642 JUMPI PUSH2 0x613 DUP2 PUSH2 0x411 JUMP JUMPDEST PUSH2 0x61C DUP5 PUSH2 0x4F6 JUMP JUMPDEST DUP2 ADD PUSH1 0x20 DUP6 LT ISZERO PUSH2 0x62B JUMPI DUP2 SWAP1 POP JUMPDEST PUSH2 0x63F PUSH2 0x637 DUP6 PUSH2 0x4F6 JUMP JUMPDEST DUP4 ADD DUP3 PUSH2 0x5DF JUMP JUMPDEST POP POP JUMPDEST POP POP POP JUMP JUMPDEST PUSH0 DUP3 DUP3 SHR SWAP1 POP SWAP3 SWAP2 POP POP JUMP JUMPDEST PUSH0 PUSH2 0x662 PUSH0 NOT DUP5 PUSH1 0x8 MUL PUSH2 0x647 JUMP JUMPDEST NOT DUP1 DUP4 AND SWAP2 POP POP SWAP3 SWAP2 POP POP JUMP JUMPDEST PUSH0 PUSH2 0x67A DUP4 DUP4 PUSH2 0x653 JUMP JUMPDEST SWAP2 POP DUP3 PUSH1 0x2 MUL DUP3 OR SWAP1 POP SWAP3 SWAP2 POP POP JUMP JUMPDEST PUSH2 0x693 DUP3 PUSH2 0x310 JUMP JUMPDEST PUSH8 0xFFFFFFFFFFFFFFFF DUP2 GT ISZERO PUSH2 0x6AC JUMPI PUSH2 0x6AB PUSH2 0x1A5 JUMP JUMPDEST JUMPDEST PUSH2 0x6B6 DUP3 SLOAD PUSH2 0x3D7 JUMP JUMPDEST PUSH2 0x6C1 DUP3 DUP3 DUP6 PUSH2 0x601 JUMP JUMPDEST PUSH0 PUSH1 0x20 SWAP1 POP PUSH1 0x1F DUP4 GT PUSH1 0x1 DUP2 EQ PUSH2 0x6F2 JUMPI PUSH0 DUP5 ISZERO PUSH2 0x6E0 JUMPI DUP3 DUP8 ADD MLOAD SWAP1 POP JUMPDEST PUSH2 0x6EA DUP6 DUP3 PUSH2 0x66F JUMP JUMPDEST DUP7 SSTORE POP PUSH2 0x751 JUMP JUMPDEST PUSH1 0x1F NOT DUP5 AND PUSH2 0x700 DUP7 PUSH2 0x411 JUMP JUMPDEST PUSH0 JUMPDEST DUP3 DUP2 LT ISZERO PUSH2 0x727 JUMPI DUP5 DUP10 ADD MLOAD DUP3 SSTORE PUSH1 0x1 DUP3 ADD SWAP2 POP PUSH1 0x20 DUP6 ADD SWAP5 POP PUSH1 0x20 DUP2 ADD SWAP1 POP PUSH2 0x702 JUMP JUMPDEST DUP7 DUP4 LT ISZERO PUSH2 0x744 JUMPI DUP5 DUP10 ADD MLOAD PUSH2 0x740 PUSH1 0x1F DUP10 AND DUP3 PUSH2 0x653 JUMP JUMPDEST DUP4 SSTORE POP JUMPDEST PUSH1 0x1 PUSH1 0x2 DUP9 MUL ADD DUP9 SSTORE POP POP POP JUMPDEST POP POP POP POP POP POP JUMP INVALID LOG2 PUSH5 0x6970667358 0x22 SLT KECCAK256 SWAP15 LT SWAP10 SWAP15 STATICCALL DUP7 CREATE PUSH28 0x7E2B7B5C17BD3A216CB9171830EFD694F9C1ACD48AA490E564736F6C PUSH4 0x43000818 STOP CALLER "
		},
		"gasEstimates": {
			"creation": {
				"codeDepositCost": "387000",
				"executionCost": "infinite",
				"totalCost": "infinite"
			},
			"external": {
				"addInfo(string)": "infinite",
				"modifyStr(string)": "infinite",
				"sayHello()": "infinite"
			}
		},
		"methodIdentifiers": {
			"addInfo(string)": "0bf803e4",
			"modifyStr(string)": "9272d950",
			"sayHello()": "ef5fb05b"
		}
	},
	"abi": [
		{
			"inputs": [
				{
					"internalType": "string",
					"name": "myStr",
					"type": "string"
				}
			],
			"name": "addInfo",
			"outputs": [
				{
					"internalType": "string",
					"name": "",
					"type": "string"
				}
			],
			"stateMutability": "view",
			"type": "function"
		},
		{
			"inputs": [
				{
					"internalType": "string",
					"name": "myStr",
					"type": "string"
				}
			],
			"name": "modifyStr",
			"outputs": [],
			"stateMutability": "nonpayable",
			"type": "function"
		},
		{
			"inputs": [],
			"name": "sayHello",
			"outputs": [
				{
					"internalType": "string",
					"name": "",
					"type": "string"
				}
			],
			"stateMutability": "view",
			"type": "function"
		}
	]
}